{
  "contractName": "Notary_tokkenit",
  "abi": [
    {
      "constant": false,
      "inputs": [],
      "name": "kill",
      "outputs": [],
      "payable": false,
      "stateMutability": "nonpayable",
      "type": "function"
    },
    {
      "constant": true,
      "inputs": [],
      "name": "owner",
      "outputs": [
        {
          "name": "",
          "type": "address"
        }
      ],
      "payable": false,
      "stateMutability": "view",
      "type": "function"
    },
    {
      "constant": false,
      "inputs": [
        {
          "name": "_newOwner",
          "type": "address"
        }
      ],
      "name": "transferOwnership",
      "outputs": [],
      "payable": false,
      "stateMutability": "nonpayable",
      "type": "function"
    },
    {
      "payable": true,
      "stateMutability": "payable",
      "type": "fallback"
    },
    {
      "anonymous": false,
      "inputs": [
        {
          "indexed": false,
          "name": "hash",
          "type": "bytes32"
        },
        {
          "indexed": false,
          "name": "sender",
          "type": "address"
        }
      ],
      "name": "ProofAdded",
      "type": "event"
    },
    {
      "constant": false,
      "inputs": [
        {
          "name": "_hash",
          "type": "bytes32"
        }
      ],
      "name": "registerProof",
      "outputs": [
        {
          "name": "",
          "type": "bool"
        }
      ],
      "payable": false,
      "stateMutability": "nonpayable",
      "type": "function"
    },
    {
      "constant": true,
      "inputs": [
        {
          "name": "_hash",
          "type": "bytes32"
        }
      ],
      "name": "checkProof",
      "outputs": [
        {
          "name": "",
          "type": "bool"
        }
      ],
      "payable": false,
      "stateMutability": "view",
      "type": "function"
    },
    {
      "constant": true,
      "inputs": [
        {
          "name": "_hash",
          "type": "bytes32"
        }
      ],
      "name": "getMetadata",
      "outputs": [
        {
          "name": "hash",
          "type": "bytes32"
        },
        {
          "name": "sender",
          "type": "address"
        }
      ],
      "payable": false,
      "stateMutability": "view",
      "type": "function"
    }
  ],
  "bytecode": "0x6080604052336000806101000a81548173ffffffffffffffffffffffffffffffffffffffff021916908373ffffffffffffffffffffffffffffffffffffffff1602179055506106cc806100536000396000f300608060405260043610610078576000357c0100000000000000000000000000000000000000000000000000000000900463ffffffff1680630849068d146100cb57806341c0e1b5146101145780634d44f1081461012b5780638da5cb5b14610174578063a5961b4c146101cb578063f2fde38b1461024b575b60003411156100c9573373ffffffffffffffffffffffffffffffffffffffff166108fc349081150290604051600060405180830381858888f193505050501580156100c7573d6000803e3d6000fd5b505b005b3480156100d757600080fd5b506100fa600480360381019080803560001916906020019092919050505061028e565b604051808215151515815260200191505060405180910390f35b34801561012057600080fd5b5061012961046f565b005b34801561013757600080fd5b5061015a6004803603810190808035600019169060200190929190505050610504565b604051808215151515815260200191505060405180910390f35b34801561018057600080fd5b5061018961057a565b604051808273ffffffffffffffffffffffffffffffffffffffff1673ffffffffffffffffffffffffffffffffffffffff16815260200191505060405180910390f35b3480156101d757600080fd5b506101fa600480360381019080803560001916906020019092919050505061059f565b6040518083600019166000191681526020018273ffffffffffffffffffffffffffffffffffffffff1673ffffffffffffffffffffffffffffffffffffffff1681526020019250505060405180910390f35b34801561025757600080fd5b5061028c600480360381019080803573ffffffffffffffffffffffffffffffffffffffff169060200190929190505050610602565b005b60008060009054906101000a900473ffffffffffffffffffffffffffffffffffffffff1673ffffffffffffffffffffffffffffffffffffffff163373ffffffffffffffffffffffffffffffffffffffff161415156102eb57600080fd5b6102f482610504565b1515610368576040517f08c379a00000000000000000000000000000000000000000000000000000000081526004018080602001828103825260148152602001807f6861736820616c7265616479207374616d70656400000000000000000000000081525060200191505060405180910390fd5b6020604051908101604052803373ffffffffffffffffffffffffffffffffffffffff1681525060016000846000191660001916815260200190815260200160002060008201518160000160006101000a81548173ffffffffffffffffffffffffffffffffffffffff021916908373ffffffffffffffffffffffffffffffffffffffff1602179055509050507f967f21793785b95fc1fbf6109d11df5fc811e5edfec76b0f2da3816b54214ded82336040518083600019166000191681526020018273ffffffffffffffffffffffffffffffffffffffff1673ffffffffffffffffffffffffffffffffffffffff1681526020019250505060405180910390a160019050919050565b6000809054906101000a900473ffffffffffffffffffffffffffffffffffffffff1673ffffffffffffffffffffffffffffffffffffffff163373ffffffffffffffffffffffffffffffffffffffff161415156104ca57600080fd5b6000809054906101000a900473ffffffffffffffffffffffffffffffffffffffff1673ffffffffffffffffffffffffffffffffffffffff16ff5b60008073ffffffffffffffffffffffffffffffffffffffff1660016000846000191660001916815260200190815260200160002060000160009054906101000a900473ffffffffffffffffffffffffffffffffffffffff1673ffffffffffffffffffffffffffffffffffffffff16149050919050565b6000809054906101000a900473ffffffffffffffffffffffffffffffffffffffff1681565b6000806105ab83610504565b156105b5576105fd565b60016000846000191660001916815260200190815260200160002060000160009054906101000a900473ffffffffffffffffffffffffffffffffffffffff1690508281915091505b915091565b6000809054906101000a900473ffffffffffffffffffffffffffffffffffffffff1673ffffffffffffffffffffffffffffffffffffffff163373ffffffffffffffffffffffffffffffffffffffff1614151561065d57600080fd5b806000806101000a81548173ffffffffffffffffffffffffffffffffffffffff021916908373ffffffffffffffffffffffffffffffffffffffff160217905550505600a165627a7a72305820ae78fa1de73442540c80ddd0ecdbd966280da4a6c247a57568e74fea6964ea090029",
  "source": "pragma solidity ^0.4.17;\n\nimport \"./Owned.sol\";\nimport \"./Mortal.sol\";\n\n/*\n* Contract implementing a basic virtual notary (proof of existence)\n*/\ncontract Notary_tokkenit is Owned, Mortal {\n\n    /*\n    Fallback function\n    */\n    function() public payable  {\n        if (msg.value > 0) {\n            msg.sender.transfer(msg.value);\n        }\n    }\n\n    /*\n    Structures\n    */\n    // Metadata associated to a proof of existence\n    struct ProofMetadata {\n        // Address which has submitted the proof\n        address sender;\n    }\n\n\n    /*\n    Events\n    */\n    // Proof successfully added into the book\n    event ProofAdded(bytes32 hash, address sender);\n    /*\n    State variables\n    */\n    // book storing proofs of existence submitted to the contract\n    // Maps the hash of a file (SHA3 keccak-256) with additional metadata\n    mapping(bytes32 => ProofMetadata) book;\n\n\n    /*\n    Functions\n    */\n\n    /*\n    Registers a proof of existence\n    Arguments:\n        _hash (bytes32) = hash of the document (SHA3 keccak-256)\n        row_id (string) = additional row_id associated to the proof\n    */\n    function registerProof(bytes32 _hash) public onlyOwner  returns (bool) {\n        require(checkProof(_hash),\"hash already stamped\");\n        // Registers the proof with the timestamp of the block\n        book[_hash] = ProofMetadata(msg.sender);\n        // Triggers a ProofAdded event\n        emit ProofAdded(_hash, msg.sender);\n\n        return true;\n    }\n\n    /*\n    Checks for the existence of a proof\n    Returns true if proof exists, otherwise returns false.\n    Arguments:\n        _hash (bytes32) = hash of the document to be checked (SHA3 keccak-256)\n    */\n    function checkProof(bytes32 _hash) public view  returns (bool) {\n        return book[_hash].sender == address(0x0);\n    }\n\n    /*\n    Gets metadata associated to a proof\n    Returns a ProofMetadata.\n    Arguments:\n        _hash (bytes32) = hash of the document (SHA3 keccak-256)\n    */\n    function getMetadata(bytes32 _hash) public view returns (bytes32 hash, address sender){\n        if (checkProof(_hash)) return;\n        sender = book[_hash].sender;\n        return (_hash, sender);\n    }\n\n}",
  "sourcePath": "/Users/matogallardo/Documents/repos/notary_sc/contracts/Notary_tokkenit.sol",
  "compiler": {
    "name": "solc",
    "version": "0.4.24+commit.e67f0147.Emscripten.clang"
  },
  "schemaVersion": "2.0.1",
  "updatedAt": "2018-09-26T20:38:36.035Z"
}