{
  "contractName": "Owned",
  "abi": [
    {
      "constant": true,
      "inputs": [],
      "name": "owner",
      "outputs": [
        {
          "name": "",
          "type": "address"
        }
      ],
      "payable": false,
      "stateMutability": "view",
      "type": "function"
    },
    {
      "inputs": [],
      "payable": false,
      "stateMutability": "nonpayable",
      "type": "constructor"
    },
    {
      "constant": false,
      "inputs": [
        {
          "name": "_newOwner",
          "type": "address"
        }
      ],
      "name": "transferOwnership",
      "outputs": [],
      "payable": false,
      "stateMutability": "nonpayable",
      "type": "function"
    }
  ],
  "bytecode": "0x608060405234801561001057600080fd5b50336000806101000a81548173ffffffffffffffffffffffffffffffffffffffff021916908373ffffffffffffffffffffffffffffffffffffffff1602179055506101da806100606000396000f30060806040526004361061004c576000357c0100000000000000000000000000000000000000000000000000000000900463ffffffff1680638da5cb5b14610051578063f2fde38b146100a8575b600080fd5b34801561005d57600080fd5b506100666100eb565b604051808273ffffffffffffffffffffffffffffffffffffffff1673ffffffffffffffffffffffffffffffffffffffff16815260200191505060405180910390f35b3480156100b457600080fd5b506100e9600480360381019080803573ffffffffffffffffffffffffffffffffffffffff169060200190929190505050610110565b005b6000809054906101000a900473ffffffffffffffffffffffffffffffffffffffff1681565b6000809054906101000a900473ffffffffffffffffffffffffffffffffffffffff1673ffffffffffffffffffffffffffffffffffffffff163373ffffffffffffffffffffffffffffffffffffffff1614151561016b57600080fd5b806000806101000a81548173ffffffffffffffffffffffffffffffffffffffff021916908373ffffffffffffffffffffffffffffffffffffffff160217905550505600a165627a7a723058203bb3783a66b94a85756b1c10269dc907ef7a6314f1d9b71abfc3f78ae5a064080029",
  "source": "pragma solidity ^0.4.17;\n\n/*\nGeneric contract managing the ownership of the contract by a single address.\nContracts can inherit from Owned to implement this behavior\n*/\ncontract Owned {\n\n    /*\n    State variables\n    */\n\n    // Address owning the contract\n    address public owner;\n\n    /*\n    Constructor\n    */\n    constructor() public {\n        owner = msg.sender;\n    }\n\n    /*\n    Functions\n    */\n\n    /*\n    Transfers contract ownership to a new address\n    Arguments:\n        _newOwner (address) = address of the new owner\n    */\n    function transferOwnership(address _newOwner) onlyOwner public {\n        owner = _newOwner;\n    }\n\n    /*\n    Modifiers\n    */\n\n    /*\n    Restricts execution to message owner\n    */\n    modifier onlyOwner {\n        require(msg.sender == owner);\n        _;\n    }\n\n}",
  "sourcePath": "/Users/matogallardo/Documents/repos/notary_sc/contracts/Owned.sol",
  "compiler": {
    "name": "solc",
    "version": "0.4.24+commit.e67f0147.Emscripten.clang"
  },
  "schemaVersion": "2.0.1",
  "updatedAt": "2018-09-17T21:13:44.686Z"
}